{
  "contractName": "ByzantineSimpleSwapBridge",
  "abi": [
    {
      "constant": true,
      "inputs": [],
      "name": "minFee",
      "outputs": [
        {
          "name": "",
          "type": "uint256"
        }
      ],
      "payable": false,
      "stateMutability": "view",
      "type": "function"
    },
    {
      "constant": true,
      "inputs": [],
      "name": "transitionDuration",
      "outputs": [
        {
          "name": "",
          "type": "uint256"
        }
      ],
      "payable": false,
      "stateMutability": "view",
      "type": "function"
    },
    {
      "constant": true,
      "inputs": [],
      "name": "swapCount",
      "outputs": [
        {
          "name": "",
          "type": "uint256"
        }
      ],
      "payable": false,
      "stateMutability": "view",
      "type": "function"
    },
    {
      "constant": true,
      "inputs": [],
      "name": "transitionRatio",
      "outputs": [
        {
          "name": "",
          "type": "uint256"
        }
      ],
      "payable": false,
      "stateMutability": "view",
      "type": "function"
    },
    {
      "constant": true,
      "inputs": [
        {
          "name": "",
          "type": "address"
        }
      ],
      "name": "supportedTokens",
      "outputs": [
        {
          "name": "",
          "type": "bool"
        }
      ],
      "payable": false,
      "stateMutability": "view",
      "type": "function"
    },
    {
      "constant": false,
      "inputs": [],
      "name": "renounceOwnership",
      "outputs": [],
      "payable": false,
      "stateMutability": "nonpayable",
      "type": "function"
    },
    {
      "constant": true,
      "inputs": [],
      "name": "startTime",
      "outputs": [
        {
          "name": "",
          "type": "uint256"
        }
      ],
      "payable": false,
      "stateMutability": "view",
      "type": "function"
    },
    {
      "constant": true,
      "inputs": [],
      "name": "owner",
      "outputs": [
        {
          "name": "",
          "type": "address"
        }
      ],
      "payable": false,
      "stateMutability": "view",
      "type": "function"
    },
    {
      "constant": true,
      "inputs": [],
      "name": "maxSwapAmount",
      "outputs": [
        {
          "name": "",
          "type": "uint256"
        }
      ],
      "payable": false,
      "stateMutability": "view",
      "type": "function"
    },
    {
      "constant": true,
      "inputs": [],
      "name": "feeWallet",
      "outputs": [
        {
          "name": "",
          "type": "address"
        }
      ],
      "payable": false,
      "stateMutability": "view",
      "type": "function"
    },
    {
      "constant": false,
      "inputs": [
        {
          "name": "_newOwner",
          "type": "address"
        }
      ],
      "name": "transferOwnership",
      "outputs": [],
      "payable": false,
      "stateMutability": "nonpayable",
      "type": "function"
    },
    {
      "inputs": [
        {
          "name": "_feeWallet",
          "type": "address"
        },
        {
          "name": "_minFee",
          "type": "uint256"
        },
        {
          "name": "_transitionRatio",
          "type": "uint256"
        },
        {
          "name": "_maxSwapAmount",
          "type": "uint256"
        },
        {
          "name": "_startTime",
          "type": "uint256"
        }
      ],
      "payable": false,
      "stateMutability": "nonpayable",
      "type": "constructor"
    },
    {
      "anonymous": false,
      "inputs": [
        {
          "indexed": true,
          "name": "swapId",
          "type": "uint256"
        },
        {
          "indexed": false,
          "name": "from",
          "type": "address"
        },
        {
          "indexed": false,
          "name": "to",
          "type": "bytes32"
        },
        {
          "indexed": false,
          "name": "amount",
          "type": "uint256"
        },
        {
          "indexed": false,
          "name": "token",
          "type": "address"
        },
        {
          "indexed": false,
          "name": "fee",
          "type": "uint256"
        },
        {
          "indexed": false,
          "name": "srcNetwork",
          "type": "uint256"
        },
        {
          "indexed": false,
          "name": "dstNetwork",
          "type": "uint256"
        }
      ],
      "name": "TokenSwapped",
      "type": "event"
    },
    {
      "anonymous": false,
      "inputs": [
        {
          "indexed": true,
          "name": "_token",
          "type": "address"
        },
        {
          "indexed": true,
          "name": "_controller",
          "type": "address"
        },
        {
          "indexed": false,
          "name": "_amount",
          "type": "uint256"
        }
      ],
      "name": "ClaimedTokens",
      "type": "event"
    },
    {
      "anonymous": false,
      "inputs": [
        {
          "indexed": true,
          "name": "previousOwner",
          "type": "address"
        }
      ],
      "name": "OwnershipRenounced",
      "type": "event"
    },
    {
      "anonymous": false,
      "inputs": [
        {
          "indexed": true,
          "name": "previousOwner",
          "type": "address"
        },
        {
          "indexed": true,
          "name": "newOwner",
          "type": "address"
        }
      ],
      "name": "OwnershipTransferred",
      "type": "event"
    },
    {
      "constant": false,
      "inputs": [
        {
          "name": "from",
          "type": "address"
        },
        {
          "name": "_amount",
          "type": "uint256"
        },
        {
          "name": "_token",
          "type": "address"
        },
        {
          "name": "_data",
          "type": "bytes"
        }
      ],
      "name": "receiveApproval",
      "outputs": [],
      "payable": false,
      "stateMutability": "nonpayable",
      "type": "function"
    },
    {
      "constant": false,
      "inputs": [
        {
          "name": "_token",
          "type": "address"
        }
      ],
      "name": "addSupportedToken",
      "outputs": [],
      "payable": false,
      "stateMutability": "nonpayable",
      "type": "function"
    },
    {
      "constant": false,
      "inputs": [
        {
          "name": "_token",
          "type": "address"
        }
      ],
      "name": "removeSupportedToken",
      "outputs": [],
      "payable": false,
      "stateMutability": "nonpayable",
      "type": "function"
    },
    {
      "constant": false,
      "inputs": [
        {
          "name": "_startTime",
          "type": "uint256"
        }
      ],
      "name": "changeStartTime",
      "outputs": [],
      "payable": false,
      "stateMutability": "nonpayable",
      "type": "function"
    },
    {
      "constant": false,
      "inputs": [
        {
          "name": "_maxSwapAmount",
          "type": "uint256"
        }
      ],
      "name": "changeMaxSwapAmount",
      "outputs": [],
      "payable": false,
      "stateMutability": "nonpayable",
      "type": "function"
    },
    {
      "constant": false,
      "inputs": [
        {
          "name": "_newFeeWallet",
          "type": "address"
        }
      ],
      "name": "changeFeeWallet",
      "outputs": [],
      "payable": false,
      "stateMutability": "nonpayable",
      "type": "function"
    },
    {
      "constant": false,
      "inputs": [
        {
          "name": "_minFee",
          "type": "uint256"
        }
      ],
      "name": "changeMinFee",
      "outputs": [],
      "payable": false,
      "stateMutability": "nonpayable",
      "type": "function"
    },
    {
      "constant": false,
      "inputs": [
        {
          "name": "_transitionRatio",
          "type": "uint256"
        }
      ],
      "name": "changeTransitionRatio",
      "outputs": [],
      "payable": false,
      "stateMutability": "nonpayable",
      "type": "function"
    },
    {
      "constant": false,
      "inputs": [
        {
          "name": "_transitionDuration",
          "type": "uint256"
        }
      ],
      "name": "changeTransitionDuration",
      "outputs": [],
      "payable": false,
      "stateMutability": "nonpayable",
      "type": "function"
    },
    {
      "constant": true,
      "inputs": [
        {
          "name": "_amount",
          "type": "uint256"
        }
      ],
      "name": "querySwapFeeForNow",
      "outputs": [
        {
          "name": "",
          "type": "uint256"
        }
      ],
      "payable": false,
      "stateMutability": "view",
      "type": "function"
    },
    {
      "constant": true,
      "inputs": [
        {
          "name": "_amount",
          "type": "uint256"
        },
        {
          "name": "_time",
          "type": "uint256"
        }
      ],
      "name": "querySwapFee",
      "outputs": [
        {
          "name": "",
          "type": "uint256"
        }
      ],
      "payable": false,
      "stateMutability": "view",
      "type": "function"
    },
    {
      "constant": false,
      "inputs": [
        {
          "name": "_token",
          "type": "address"
        }
      ],
      "name": "claimTokens",
      "outputs": [],
      "payable": false,
      "stateMutability": "nonpayable",
      "type": "function"
    }
  ],
  "bytecode": "0x608060405234801561001057600080fd5b5060405160a080611b2b8339810180604052810190808051906020019092919080519060200190929190805190602001909291908051906020019092919080519060200190929190505050336000806101000a81548173ffffffffffffffffffffffffffffffffffffffff021916908373ffffffffffffffffffffffffffffffffffffffff16021790555084600560006101000a81548173ffffffffffffffffffffffffffffffffffffffff021916908373ffffffffffffffffffffffffffffffffffffffff160217905550836006819055508260078190555081600481905550806003819055506154606008819055505050505050611a16806101156000396000f300608060405260043610610133576000357c0100000000000000000000000000000000000000000000000000000000900463ffffffff16806324ec75901461013857806326a01425146101635780632eff0d9e1461018e578063342f87c9146101b957806336d819e3146101fa5780633e4d0310146102255780635bdf55671461026857806368c4ac26146102955780636d69fcaf146102f0578063715018a614610333578063763191901461034a57806378e979251461038d5780638aa5b2c3146103b85780638da5cb5b146103e55780638f4ffcb11461043c578063a317ea06146104ef578063bb7e01031461051c578063bbb9541514610549578063bd0c474914610576578063cce987d4146105c1578063df8de3e7146105ec578063f25f4b561461062f578063f2fde38b14610686575b600080fd5b34801561014457600080fd5b5061014d6106c9565b6040518082815260200191505060405180910390f35b34801561016f57600080fd5b506101786106cf565b6040518082815260200191505060405180910390f35b34801561019a57600080fd5b506101a36106d5565b6040518082815260200191505060405180910390f35b3480156101c557600080fd5b506101e4600480360381019080803590602001909291905050506106db565b6040518082815260200191505060405180910390f35b34801561020657600080fd5b5061020f6106ee565b6040518082815260200191505060405180910390f35b34801561023157600080fd5b50610266600480360381019080803573ffffffffffffffffffffffffffffffffffffffff1690602001909291905050506106f4565b005b34801561027457600080fd5b5061029360048036038101908080359060200190929190505050610793565b005b3480156102a157600080fd5b506102d6600480360381019080803573ffffffffffffffffffffffffffffffffffffffff1690602001909291905050506107f8565b604051808215151515815260200191505060405180910390f35b3480156102fc57600080fd5b50610331600480360381019080803573ffffffffffffffffffffffffffffffffffffffff169060200190929190505050610818565b005b34801561033f57600080fd5b506103486108cd565b005b34801561035657600080fd5b5061038b600480360381019080803573ffffffffffffffffffffffffffffffffffffffff1690602001909291905050506109cf565b005b34801561039957600080fd5b506103a2610a85565b6040518082815260200191505060405180910390f35b3480156103c457600080fd5b506103e360048036038101908080359060200190929190505050610a8b565b005b3480156103f157600080fd5b506103fa610af0565b604051808273ffffffffffffffffffffffffffffffffffffffff1673ffffffffffffffffffffffffffffffffffffffff16815260200191505060405180910390f35b34801561044857600080fd5b506104ed600480360381019080803573ffffffffffffffffffffffffffffffffffffffff16906020019092919080359060200190929190803573ffffffffffffffffffffffffffffffffffffffff169060200190929190803590602001908201803590602001908080601f0160208091040260200160405190810160405280939291908181526020018383808284378201915050505050509192919290505050610b15565b005b3480156104fb57600080fd5b5061051a6004803603810190808035906020019092919050505061134e565b005b34801561052857600080fd5b50610547600480360381019080803590602001909291905050506113b3565b005b34801561055557600080fd5b5061057460048036038101908080359060200190929190505050611418565b005b34801561058257600080fd5b506105ab600480360381019080803590602001909291908035906020019092919050505061147d565b6040518082815260200191505060405180910390f35b3480156105cd57600080fd5b506105d661150a565b6040518082815260200191505060405180910390f35b3480156105f857600080fd5b5061062d600480360381019080803573ffffffffffffffffffffffffffffffffffffffff169060200190929190505050611510565b005b34801561063b57600080fd5b50610644611815565b604051808273ffffffffffffffffffffffffffffffffffffffff1673ffffffffffffffffffffffffffffffffffffffff16815260200191505060405180910390f35b34801561069257600080fd5b506106c7600480360381019080803573ffffffffffffffffffffffffffffffffffffffff16906020019092919050505061183b565b005b60065481565b60085481565b60025481565b60006106e7824261147d565b9050919050565b60075481565b6000809054906101000a900473ffffffffffffffffffffffffffffffffffffffff1673ffffffffffffffffffffffffffffffffffffffff163373ffffffffffffffffffffffffffffffffffffffff1614151561074f57600080fd5b80600560006101000a81548173ffffffffffffffffffffffffffffffffffffffff021916908373ffffffffffffffffffffffffffffffffffffffff16021790555050565b6000809054906101000a900473ffffffffffffffffffffffffffffffffffffffff1673ffffffffffffffffffffffffffffffffffffffff163373ffffffffffffffffffffffffffffffffffffffff161415156107ee57600080fd5b8060078190555050565b60016020528060005260406000206000915054906101000a900460ff1681565b6000809054906101000a900473ffffffffffffffffffffffffffffffffffffffff1673ffffffffffffffffffffffffffffffffffffffff163373ffffffffffffffffffffffffffffffffffffffff1614151561087357600080fd5b60018060008373ffffffffffffffffffffffffffffffffffffffff1673ffffffffffffffffffffffffffffffffffffffff16815260200190815260200160002060006101000a81548160ff02191690831515021790555050565b6000809054906101000a900473ffffffffffffffffffffffffffffffffffffffff1673ffffffffffffffffffffffffffffffffffffffff163373ffffffffffffffffffffffffffffffffffffffff1614151561092857600080fd5b6000809054906101000a900473ffffffffffffffffffffffffffffffffffffffff1673ffffffffffffffffffffffffffffffffffffffff167ff8df31144d9c2f0f6b59d69b8b98abd5459d07f2742c4df920b25aae33c6482060405160405180910390a260008060006101000a81548173ffffffffffffffffffffffffffffffffffffffff021916908373ffffffffffffffffffffffffffffffffffffffff160217905550565b6000809054906101000a900473ffffffffffffffffffffffffffffffffffffffff1673ffffffffffffffffffffffffffffffffffffffff163373ffffffffffffffffffffffffffffffffffffffff16141515610a2a57600080fd5b6000600160008373ffffffffffffffffffffffffffffffffffffffff1673ffffffffffffffffffffffffffffffffffffffff16815260200190815260200160002060006101000a81548160ff02191690831515021790555050565b60035481565b6000809054906101000a900473ffffffffffffffffffffffffffffffffffffffff1673ffffffffffffffffffffffffffffffffffffffff163373ffffffffffffffffffffffffffffffffffffffff16141515610ae657600080fd5b8060038190555050565b6000809054906101000a900473ffffffffffffffffffffffffffffffffffffffff1681565b600080600080600160008773ffffffffffffffffffffffffffffffffffffffff1673ffffffffffffffffffffffffffffffffffffffff16815260200190815260200160002060009054906101000a900460ff161515610bdc576040517f08c379a00000000000000000000000000000000000000000000000000000000081526004018080602001828103825260138152602001807f4e6f7420737570706f74656420746f6b656e2e0000000000000000000000000081525060200191505060405180910390fd5b8573ffffffffffffffffffffffffffffffffffffffff163373ffffffffffffffffffffffffffffffffffffffff16141515610c7f576040517f08c379a000000000000000000000000000000000000000000000000000000000815260040180806020018281038252601f8152602001807f496e76616c6964206d73672073656e64657220666f7220746869732074782e0081525060200191505060405180910390fd5b604051366000823760a4810151945060c4810151935060e481015192505060006003541480610cb057506003544210155b1515610d4a576040517f08c379a00000000000000000000000000000000000000000000000000000000081526004018080602001828103825260248152602001807f537761702073686f756c6420626520616674657220746865207374617274207481526020017f696d652e0000000000000000000000000000000000000000000000000000000081525060400191505060405180910390fd5b6004548411151515610dea576040517f08c379a000000000000000000000000000000000000000000000000000000000815260040180806020018281038252602e8152602001807f5377617020616d6f756e74206d757374206265206c657373207468616e206d6181526020017f78207377617020616d6f756e742e00000000000000000000000000000000000081525060400191505060405180910390fd5b600084111515610e88576040517f08c379a00000000000000000000000000000000000000000000000000000000081526004018080602001828103825260258152602001807f5377617020616d6f756e74206d757374206265206c6172676572207468616e2081526020017f7a65726f2e00000000000000000000000000000000000000000000000000000081525060400191505060405180910390fd5b610e91846106db565b90508084018710151515610f33576040517f08c379a00000000000000000000000000000000000000000000000000000000081526004018080602001828103825260278152602001807f4e6f20656e6f756768206f6620746f6b656e20616d6f756e742061726520617081526020017f70726f7665642e0000000000000000000000000000000000000000000000000081525060400191505060405180910390fd5b60008111156110e5578573ffffffffffffffffffffffffffffffffffffffff166323b872dd89600560009054906101000a900473ffffffffffffffffffffffffffffffffffffffff16846040518463ffffffff167c0100000000000000000000000000000000000000000000000000000000028152600401808473ffffffffffffffffffffffffffffffffffffffff1673ffffffffffffffffffffffffffffffffffffffff1681526020018373ffffffffffffffffffffffffffffffffffffffff1673ffffffffffffffffffffffffffffffffffffffff1681526020018281526020019350505050602060405180830381600087803b15801561103557600080fd5b505af1158015611049573d6000803e3d6000fd5b505050506040513d602081101561105f57600080fd5b810190808051906020019092919050505015156110e4576040517f08c379a00000000000000000000000000000000000000000000000000000000081526004018080602001828103825260148152602001807f466565207472616e73666572206661696c65642e00000000000000000000000081525060200191505060405180910390fd5b5b8573ffffffffffffffffffffffffffffffffffffffff166323b872dd8930876040518463ffffffff167c0100000000000000000000000000000000000000000000000000000000028152600401808473ffffffffffffffffffffffffffffffffffffffff1673ffffffffffffffffffffffffffffffffffffffff1681526020018373ffffffffffffffffffffffffffffffffffffffff1673ffffffffffffffffffffffffffffffffffffffff1681526020018281526020019350505050602060405180830381600087803b1580156111bc57600080fd5b505af11580156111d0573d6000803e3d6000fd5b505050506040513d60208110156111e657600080fd5b8101908080519060200190929190505050151561126b576040517f08c379a000000000000000000000000000000000000000000000000000000000815260040180806020018281038252601c8152602001807f5377617020616d6f756e74207472616e73666572206661696c65642e0000000081525060200191505060405180910390fd5b6002547f431bd7ee966078288ea9c0a3c09de6b3bf78f7a13641235f1a5c455de138ce5a8984878a8662030d408a604051808873ffffffffffffffffffffffffffffffffffffffff1673ffffffffffffffffffffffffffffffffffffffff16815260200187600019166000191681526020018681526020018573ffffffffffffffffffffffffffffffffffffffff1673ffffffffffffffffffffffffffffffffffffffff16815260200184815260200183815260200182815260200197505050505050505060405180910390a26001600254016002819055505050505050505050565b6000809054906101000a900473ffffffffffffffffffffffffffffffffffffffff1673ffffffffffffffffffffffffffffffffffffffff163373ffffffffffffffffffffffffffffffffffffffff161415156113a957600080fd5b8060068190555050565b6000809054906101000a900473ffffffffffffffffffffffffffffffffffffffff1673ffffffffffffffffffffffffffffffffffffffff163373ffffffffffffffffffffffffffffffffffffffff1614151561140e57600080fd5b8060088190555050565b6000809054906101000a900473ffffffffffffffffffffffffffffffffffffffff1673ffffffffffffffffffffffffffffffffffffffff163373ffffffffffffffffffffffffffffffffffffffff1614151561147357600080fd5b8060048190555050565b6000806000600354148061149657506008546003540183115b156114a5576006549150611503565b6114ed620186a0600854026114df8560085460035401036114d1886007546118a290919063ffffffff16565b6118a290919063ffffffff16565b6118da90919063ffffffff16565b90506006548110156114ff5760065490505b8091505b5092915050565b60045481565b6000806000809054906101000a900473ffffffffffffffffffffffffffffffffffffffff1673ffffffffffffffffffffffffffffffffffffffff163373ffffffffffffffffffffffffffffffffffffffff1614151561156e57600080fd5b60008373ffffffffffffffffffffffffffffffffffffffff1614156115f0573373ffffffffffffffffffffffffffffffffffffffff166108fc3073ffffffffffffffffffffffffffffffffffffffff16319081150290604051600060405180830381858888f193505050501580156115ea573d6000803e3d6000fd5b50611810565b8291508173ffffffffffffffffffffffffffffffffffffffff166370a08231306040518263ffffffff167c0100000000000000000000000000000000000000000000000000000000028152600401808273ffffffffffffffffffffffffffffffffffffffff1673ffffffffffffffffffffffffffffffffffffffff168152602001915050602060405180830381600087803b15801561168e57600080fd5b505af11580156116a2573d6000803e3d6000fd5b505050506040513d60208110156116b857600080fd5b810190808051906020019092919050505090508173ffffffffffffffffffffffffffffffffffffffff1663a9059cbb33836040518363ffffffff167c0100000000000000000000000000000000000000000000000000000000028152600401808373ffffffffffffffffffffffffffffffffffffffff1673ffffffffffffffffffffffffffffffffffffffff16815260200182815260200192505050602060405180830381600087803b15801561176e57600080fd5b505af1158015611782573d6000803e3d6000fd5b505050506040513d602081101561179857600080fd5b8101908080519060200190929190505050503373ffffffffffffffffffffffffffffffffffffffff168373ffffffffffffffffffffffffffffffffffffffff167ff931edb47c50b4b4104c187b5814a9aef5f709e17e2ecf9617e860cacade929c836040518082815260200191505060405180910390a35b505050565b600560009054906101000a900473ffffffffffffffffffffffffffffffffffffffff1681565b6000809054906101000a900473ffffffffffffffffffffffffffffffffffffffff1673ffffffffffffffffffffffffffffffffffffffff163373ffffffffffffffffffffffffffffffffffffffff1614151561189657600080fd5b61189f816118f0565b50565b6000808314156118b557600090506118d4565b81830290508183828115156118c657fe5b041415156118d057fe5b8090505b92915050565b600081838115156118e757fe5b04905092915050565b600073ffffffffffffffffffffffffffffffffffffffff168173ffffffffffffffffffffffffffffffffffffffff161415151561192c57600080fd5b8073ffffffffffffffffffffffffffffffffffffffff166000809054906101000a900473ffffffffffffffffffffffffffffffffffffffff1673ffffffffffffffffffffffffffffffffffffffff167f8be0079c531659141344cd1fd0a4f28419497f9722a3daafe3b4186f6b6457e060405160405180910390a3806000806101000a81548173ffffffffffffffffffffffffffffffffffffffff021916908373ffffffffffffffffffffffffffffffffffffffff160217905550505600a165627a7a72305820c6a01ead90683cdc80b57015489b37582a83e0c1511391d955439d0c1acc65fc0029",
  "source": "pragma solidity ^0.4.23;\n\nimport \"openzeppelin-solidity/contracts/ownership/Ownable.sol\";\nimport \"openzeppelin-solidity/contracts/math/SafeMath.sol\";\nimport \"openzeppelin-solidity/contracts/token/ERC20/ERC20.sol\";\n\ncontract ByzantineSimpleSwapBridge is Ownable {\n    using SafeMath for uint256;\n\n    mapping (address => bool) public supportedTokens;\n\n    uint256 public swapCount;\n\n    uint256 public startTime;\n\n    uint256 public maxSwapAmount;\n\n    address public feeWallet;\n\n    uint256 public minFee;\n\n    uint256 public transitionRatio;    // default to 5000, denominator is 100000\n    uint256 public transitionDuration;  // default to 6 hours\n\n    /// Event created on initilizing token dex in source network.\n    event TokenSwapped(\n    uint256 indexed swapId, address from, bytes32 to, uint256 amount, address token, uint256 fee, uint256 srcNetwork, uint256 dstNetwork);\n\n    event ClaimedTokens(address indexed _token, address indexed _controller, uint _amount);\n\n\n    /// Constructor.\n    constructor (\n        address _feeWallet,\n        uint256 _minFee,\n        uint256 _transitionRatio,\n        uint256 _maxSwapAmount,\n        uint256 _startTime\n    ) public\n    {\n        feeWallet = _feeWallet;\n        minFee = _minFee;\n        transitionRatio = _transitionRatio;\n        maxSwapAmount = _maxSwapAmount;\n\n        startTime = _startTime;\n        \n        transitionDuration = 6*3600;\n    }\n\n    //users initial the exchange token with token method of \"approveAndCall\" in the source chain network\n    //then invoke the following function in this contract\n    //_amount include the fee token\n    function receiveApproval(address from, uint256 _amount, address _token, bytes _data) public {\n\n        require(supportedTokens[_token], \"Not suppoted token.\");\n        require(msg.sender == _token, \"Invalid msg sender for this tx.\");\n\n        uint256 swapAmount;\n        uint256 dstNetwork;\n        bytes32 receipt;\n\n        assembly {\n            let ptr := mload(0x40)\n            calldatacopy(ptr, 0, calldatasize)\n            swapAmount := mload(add(ptr, 164))\n            dstNetwork := mload(add(ptr, 196))\n            receipt :=  mload(add(ptr, 228))\n        }\n\n        require(startTime == 0 || now >= startTime, \"Swap should be after the start time.\");\n\n        require(swapAmount <= maxSwapAmount, \"Swap amount must be less than max swap amount.\");\n        require(swapAmount > 0, \"Swap amount must be larger than zero.\");\n\n        uint256 requiredFee = querySwapFeeForNow(swapAmount);\n        require(_amount >= swapAmount + requiredFee, \"No enough of token amount are approved.\");\n\n        if(requiredFee > 0) {\n            require(ERC20(_token).transferFrom(from, feeWallet, requiredFee), \"Fee transfer failed.\");\n        }\n\n        require(ERC20(_token).transferFrom(from, this, swapAmount), \"Swap amount transfer failed.\");\n\n        emit TokenSwapped(swapCount, from, receipt, swapAmount, _token, requiredFee, 200000, dstNetwork);\n        \n        swapCount = swapCount + 1;\n    }\n\n    function addSupportedToken(address _token) public onlyOwner {\n        supportedTokens[_token] = true;\n    }\n\n    function removeSupportedToken(address _token) public onlyOwner {\n        supportedTokens[_token] = false;\n    }\n\n    function changeStartTime(uint256 _startTime) public onlyOwner {\n        startTime = _startTime;\n    }\n\n    function changeMaxSwapAmount(uint256 _maxSwapAmount) public onlyOwner {\n        maxSwapAmount = _maxSwapAmount;\n    }\n\n    function changeFeeWallet(address _newFeeWallet) public onlyOwner {\n        feeWallet = _newFeeWallet;\n    }\n\n    function changeMinFee(uint256 _minFee) public onlyOwner {\n        minFee = _minFee;\n    }\n\n    function changeTransitionRatio(uint256 _transitionRatio) public onlyOwner {\n        transitionRatio = _transitionRatio;\n    }\n\n    function changeTransitionDuration(uint256 _transitionDuration) public onlyOwner {\n        transitionDuration = _transitionDuration;\n    }\n\n    function querySwapFeeForNow(uint256 _amount) public view returns (uint256) {\n        return querySwapFee(_amount, now);\n    }\n\n    function querySwapFee(uint256 _amount, uint256 _time) public view returns (uint256) {\n        if (startTime == 0 || _time > (startTime + transitionDuration)) {\n            return minFee;\n        }\n\n        uint256 requiredFee = transitionRatio.mul(_amount).mul(startTime + transitionDuration - _time).div(transitionDuration * 100000);\n\n        if (requiredFee < minFee ){\n            requiredFee = minFee;\n        }\n\n        return requiredFee;\n    }\n\n    function claimTokens(address _token) public onlyOwner {\n        if (_token == 0x0) {\n            address(msg.sender).transfer(address(this).balance);\n            return;\n        }\n\n        ERC20 token = ERC20(_token);\n        uint balance = token.balanceOf(this);\n        token.transfer(address(msg.sender), balance);\n\n        emit ClaimedTokens(_token, address(msg.sender), balance);\n    }\n}",
  "sourcePath": "/Users/denny/github.com/evolutionlandorg/darwinia-bridge/swap/contracts/ByzantineSimpleSwapBridge.sol",
  "compiler": {
    "name": "solc",
    "version": "0.4.24+commit.e67f0147.Emscripten.clang"
  },
  "schemaVersion": "2.0.1",
  "updatedAt": "2019-01-20T10:18:19.511Z"
}